{
  "contractName": "Voting",
  "abi": [
    {
      "inputs": [],
      "payable": false,
      "stateMutability": "nonpayable",
      "type": "constructor"
    },
    {
      "constant": true,
      "inputs": [
        {
          "internalType": "uint256",
          "name": "",
          "type": "uint256"
        }
      ],
      "name": "candidateList",
      "outputs": [
        {
          "internalType": "string",
          "name": "",
          "type": "string"
        }
      ],
      "payable": false,
      "stateMutability": "view",
      "type": "function"
    },
    {
      "constant": true,
      "inputs": [
        {
          "internalType": "address",
          "name": "",
          "type": "address"
        }
      ],
      "name": "register",
      "outputs": [
        {
          "internalType": "bool",
          "name": "",
          "type": "bool"
        }
      ],
      "payable": false,
      "stateMutability": "view",
      "type": "function"
    },
    {
      "constant": true,
      "inputs": [
        {
          "internalType": "uint256",
          "name": "",
          "type": "uint256"
        }
      ],
      "name": "registerIdList",
      "outputs": [
        {
          "internalType": "bytes32",
          "name": "",
          "type": "bytes32"
        }
      ],
      "payable": false,
      "stateMutability": "view",
      "type": "function"
    },
    {
      "constant": true,
      "inputs": [
        {
          "internalType": "address",
          "name": "",
          "type": "address"
        }
      ],
      "name": "voteData",
      "outputs": [
        {
          "internalType": "string",
          "name": "",
          "type": "string"
        }
      ],
      "payable": false,
      "stateMutability": "view",
      "type": "function"
    },
    {
      "constant": true,
      "inputs": [
        {
          "internalType": "address",
          "name": "",
          "type": "address"
        }
      ],
      "name": "voters",
      "outputs": [
        {
          "internalType": "bool",
          "name": "",
          "type": "bool"
        }
      ],
      "payable": false,
      "stateMutability": "view",
      "type": "function"
    },
    {
      "constant": true,
      "inputs": [
        {
          "internalType": "bytes32",
          "name": "",
          "type": "bytes32"
        }
      ],
      "name": "votesReceived",
      "outputs": [
        {
          "internalType": "uint8",
          "name": "",
          "type": "uint8"
        }
      ],
      "payable": false,
      "stateMutability": "view",
      "type": "function"
    },
    {
      "constant": false,
      "inputs": [
        {
          "internalType": "string",
          "name": "title",
          "type": "string"
        },
        {
          "internalType": "string",
          "name": "select1",
          "type": "string"
        },
        {
          "internalType": "string",
          "name": "select2",
          "type": "string"
        },
        {
          "internalType": "string",
          "name": "select3",
          "type": "string"
        }
      ],
      "name": "projectSetup",
      "outputs": [],
      "payable": false,
      "stateMutability": "nonpayable",
      "type": "function"
    },
    {
      "constant": false,
      "inputs": [
        {
          "internalType": "bytes32",
          "name": "register1",
          "type": "bytes32"
        },
        {
          "internalType": "bytes32",
          "name": "register2",
          "type": "bytes32"
        },
        {
          "internalType": "bytes32",
          "name": "register3",
          "type": "bytes32"
        },
        {
          "internalType": "bytes32",
          "name": "register4",
          "type": "bytes32"
        },
        {
          "internalType": "bytes32",
          "name": "register5",
          "type": "bytes32"
        },
        {
          "internalType": "bytes32",
          "name": "register6",
          "type": "bytes32"
        },
        {
          "internalType": "bytes32",
          "name": "register7",
          "type": "bytes32"
        },
        {
          "internalType": "bytes32",
          "name": "register8",
          "type": "bytes32"
        }
      ],
      "name": "registerIdSetup",
      "outputs": [],
      "payable": false,
      "stateMutability": "nonpayable",
      "type": "function"
    },
    {
      "constant": false,
      "inputs": [
        {
          "internalType": "string",
          "name": "register_start_time",
          "type": "string"
        },
        {
          "internalType": "string",
          "name": "register_end_time",
          "type": "string"
        },
        {
          "internalType": "string",
          "name": "vote_start_time",
          "type": "string"
        },
        {
          "internalType": "string",
          "name": "vote_end_time",
          "type": "string"
        }
      ],
      "name": "TimeSetSetup",
      "outputs": [],
      "payable": false,
      "stateMutability": "nonpayable",
      "type": "function"
    },
    {
      "constant": true,
      "inputs": [],
      "name": "getProjectName",
      "outputs": [
        {
          "internalType": "string",
          "name": "",
          "type": "string"
        }
      ],
      "payable": false,
      "stateMutability": "view",
      "type": "function"
    },
    {
      "constant": true,
      "inputs": [],
      "name": "getRegisterStartTime",
      "outputs": [
        {
          "internalType": "string",
          "name": "",
          "type": "string"
        }
      ],
      "payable": false,
      "stateMutability": "view",
      "type": "function"
    },
    {
      "constant": true,
      "inputs": [],
      "name": "getRegisterEndTime",
      "outputs": [
        {
          "internalType": "string",
          "name": "",
          "type": "string"
        }
      ],
      "payable": false,
      "stateMutability": "view",
      "type": "function"
    },
    {
      "constant": true,
      "inputs": [],
      "name": "getVoteStartTime",
      "outputs": [
        {
          "internalType": "string",
          "name": "",
          "type": "string"
        }
      ],
      "payable": false,
      "stateMutability": "view",
      "type": "function"
    },
    {
      "constant": true,
      "inputs": [],
      "name": "getVoteEndTime",
      "outputs": [
        {
          "internalType": "string",
          "name": "",
          "type": "string"
        }
      ],
      "payable": false,
      "stateMutability": "view",
      "type": "function"
    },
    {
      "constant": true,
      "inputs": [
        {
          "internalType": "uint256",
          "name": "index",
          "type": "uint256"
        }
      ],
      "name": "getCandidateList",
      "outputs": [
        {
          "internalType": "string",
          "name": "",
          "type": "string"
        }
      ],
      "payable": false,
      "stateMutability": "view",
      "type": "function"
    },
    {
      "constant": true,
      "inputs": [],
      "name": "getRegisterCount",
      "outputs": [
        {
          "internalType": "uint8",
          "name": "",
          "type": "uint8"
        }
      ],
      "payable": false,
      "stateMutability": "view",
      "type": "function"
    },
    {
      "constant": true,
      "inputs": [],
      "name": "getVoteCount",
      "outputs": [
        {
          "internalType": "uint8",
          "name": "",
          "type": "uint8"
        }
      ],
      "payable": false,
      "stateMutability": "view",
      "type": "function"
    },
    {
      "constant": true,
      "inputs": [],
      "name": "getVoteData",
      "outputs": [
        {
          "internalType": "string",
          "name": "",
          "type": "string"
        }
      ],
      "payable": false,
      "stateMutability": "view",
      "type": "function"
    },
    {
      "constant": true,
      "inputs": [
        {
          "internalType": "bytes32",
          "name": "candidate",
          "type": "bytes32"
        }
      ],
      "name": "totalVotesFor",
      "outputs": [
        {
          "internalType": "uint8",
          "name": "",
          "type": "uint8"
        }
      ],
      "payable": false,
      "stateMutability": "view",
      "type": "function"
    },
    {
      "constant": false,
      "inputs": [
        {
          "internalType": "bytes32",
          "name": "candidate",
          "type": "bytes32"
        }
      ],
      "name": "voteForCandidate",
      "outputs": [],
      "payable": false,
      "stateMutability": "nonpayable",
      "type": "function"
    },
    {
      "constant": false,
      "inputs": [
        {
          "internalType": "string",
          "name": "candidate",
          "type": "string"
        }
      ],
      "name": "voteDataStore",
      "outputs": [],
      "payable": false,
      "stateMutability": "nonpayable",
      "type": "function"
    },
    {
      "constant": false,
      "inputs": [
        {
          "internalType": "bytes32",
          "name": "registerId",
          "type": "bytes32"
        }
      ],
      "name": "someoneRegister",
      "outputs": [],
      "payable": false,
      "stateMutability": "nonpayable",
      "type": "function"
    },
    {
      "constant": true,
      "inputs": [],
      "name": "VaildID",
      "outputs": [
        {
          "internalType": "bool",
          "name": "",
          "type": "bool"
        }
      ],
      "payable": false,
      "stateMutability": "view",
      "type": "function"
    },
    {
      "constant": true,
      "inputs": [],
      "name": "isVoted",
      "outputs": [
        {
          "internalType": "bool",
          "name": "",
          "type": "bool"
        }
      ],
      "payable": false,
      "stateMutability": "view",
      "type": "function"
    },
    {
      "constant": false,
      "inputs": [
        {
          "internalType": "string",
          "name": "privatekey",
          "type": "string"
        }
      ],
      "name": "doGenerate",
      "outputs": [],
      "payable": false,
      "stateMutability": "nonpayable",
      "type": "function"
    },
    {
      "constant": true,
      "inputs": [],
      "name": "getPrivateKey",
      "outputs": [
        {
          "internalType": "string",
          "name": "",
          "type": "string"
        }
      ],
      "payable": false,
      "stateMutability": "view",
      "type": "function"
    }
  ],
  "bytecode": "0x60806040526040518060400160405280601081526020017f323032322d31312d30362031353a303000000000000000000000000000000000815250600790805190602001906200005192919062000188565b506040518060400160405280601081526020017f323032322d31312d30372031303a303000000000000000000000000000000000815250600890805190602001906200009f92919062000188565b506040518060400160405280601081526020017f323032322d31312d30372031303a30300000000000000000000000000000000081525060099080519060200190620000ed92919062000188565b506040518060400160405280601081526020017f323032322d31312d30372031303a303000000000000000000000000000000000815250600a90805190602001906200013b92919062000188565b506000600c60006101000a81548160ff021916908360ff1602179055506000600c60016101000a81548160ff021916908360ff1602179055503480156200018157600080fd5b5062000237565b828054600181600116156101000203166002900490600052602060002090601f016020900481019282601f10620001cb57805160ff1916838001178555620001fc565b82800160010185558215620001fc579182015b82811115620001fb578251825591602001919060010190620001de565b5b5090506200020b91906200020f565b5090565b6200023491905b808211156200023057600081600090555060010162000216565b5090565b90565b611fd680620002476000396000f3fe608060405234801561001057600080fd5b506004361061018e5760003560e01c80637021939f116100de578063b13c744b11610097578063e7b3387c11610071578063e7b3387c14610d3b578063f687db3914610d5f578063f918d53514610de2578063fa2e5719146110625761018e565b8063b13c744b14610be3578063ba57082514610c8a578063cc9ab26714610d0d5761018e565b80637021939f14610968578063735b81f7146109b05780637b5bc2e414610a6d5780638e0426c814610a8f5780639faf621514610b04578063a3ec138d14610b875761018e565b8063421f264e1161014b5780635994a490116101255780635994a490146107975780635f6be805146107bb578063618bde0a1461083e57806361f0b25f146108e55761018e565b8063421f264e1461065e5780634420e4861461068057806344795446146106dc5761018e565b80630270bea014610193578063069a143e14610216578063133a734614610299578063278b3656146105195780632f265cf7146105d45780633d1b21011461061c575b600080fd5b61019b611090565b6040518080602001828103825283818151815260200191508051906020019080838360005b838110156101db5780820151818401526020810190506101c0565b50505050905090810190601f1680156102085780820380516001836020036101000a031916815260200191505b509250505060405180910390f35b61021e61116f565b6040518080602001828103825283818151815260200191508051906020019080838360005b8381101561025e578082015181840152602081019050610243565b50505050905090810190601f16801561028b5780820380516001836020036101000a031916815260200191505b509250505060405180910390f35b610517600480360360808110156102af57600080fd5b81019080803590602001906401000000008111156102cc57600080fd5b8201836020820111156102de57600080fd5b8035906020019184600183028401116401000000008311171561030057600080fd5b91908080601f016020809104026020016040519081016040528093929190818152602001838380828437600081840152601f19601f8201169050808301925050505050505091929192908035906020019064010000000081111561036357600080fd5b82018360208201111561037557600080fd5b8035906020019184600183028401116401000000008311171561039757600080fd5b91908080601f016020809104026020016040519081016040528093929190818152602001838380828437600081840152601f19601f820116905080830192505050505050509192919290803590602001906401000000008111156103fa57600080fd5b82018360208201111561040c57600080fd5b8035906020019184600183028401116401000000008311171561042e57600080fd5b91908080601f016020809104026020016040519081016040528093929190818152602001838380828437600081840152601f19601f8201169050808301925050505050505091929192908035906020019064010000000081111561049157600080fd5b8201836020820111156104a357600080fd5b803590602001918460018302840111640100000000831117156104c557600080fd5b91908080601f016020809104026020016040519081016040528093929190818152602001838380828437600081840152601f19601f820116905080830192505050505050509192919290505050611211565b005b6105d26004803603602081101561052f57600080fd5b810190808035906020019064010000000081111561054c57600080fd5b82018360208201111561055e57600080fd5b8035906020019184600183028401116401000000008311171561058057600080fd5b91908080601f016020809104026020016040519081016040528093929190818152602001838380828437600081840152601f19601f82011690508083019250505050505050919291929050505061125a565b005b610600600480360360208110156105ea57600080fd5b810190808035906020019092919050505061138d565b604051808260ff1660ff16815260200191505060405180910390f35b6106486004803603602081101561063257600080fd5b81019080803590602001909291905050506113b6565b6040518082815260200191505060405180910390f35b6106666113d7565b604051808215151515815260200191505060405180910390f35b6106c26004803603602081101561069657600080fd5b81019080803573ffffffffffffffffffffffffffffffffffffffff16906020019092919050505061143c565b604051808215151515815260200191505060405180910390f35b610795600480360360208110156106f257600080fd5b810190808035906020019064010000000081111561070f57600080fd5b82018360208201111561072157600080fd5b8035906020019184600183028401116401000000008311171561074357600080fd5b91908080601f016020809104026020016040519081016040528093929190818152602001838380828437600081840152601f19601f82011690508083019250505050505050919291929050505061145c565b005b61079f611476565b604051808260ff1660ff16815260200191505060405180910390f35b6107c361148d565b6040518080602001828103825283818151815260200191508051906020019080838360005b838110156108035780820151818401526020810190506107e8565b50505050905090810190601f1680156108305780820380516001836020036101000a031916815260200191505b509250505060405180910390f35b61086a6004803603602081101561085457600080fd5b810190808035906020019092919050505061152f565b6040518080602001828103825283818151815260200191508051906020019080838360005b838110156108aa57808201518184015260208101905061088f565b50505050905090810190601f1680156108d75780820380516001836020036101000a031916815260200191505b509250505060405180910390f35b6108ed6115e8565b6040518080602001828103825283818151815260200191508051906020019080838360005b8381101561092d578082015181840152602081019050610912565b50505050905090810190601f16801561095a5780820380516001836020036101000a031916815260200191505b509250505060405180910390f35b6109946004803603602081101561097e57600080fd5b810190808035906020019092919050505061168a565b604051808260ff1660ff16815260200191505060405180910390f35b6109f2600480360360208110156109c657600080fd5b81019080803573ffffffffffffffffffffffffffffffffffffffff1690602001909291905050506116aa565b6040518080602001828103825283818151815260200191508051906020019080838360005b83811015610a32578082015181840152602081019050610a17565b50505050905090810190601f168015610a5f5780820380516001836020036101000a031916815260200191505b509250505060405180910390f35b610a7561175a565b604051808215151515815260200191505060405180910390f35b610b026004803603610100811015610aa657600080fd5b8101908080359060200190929190803590602001909291908035906020019092919080359060200190929190803590602001909291908035906020019092919080359060200190929190803590602001909291905050506117bf565b005b610b0c611929565b6040518080602001828103825283818151815260200191508051906020019080838360005b83811015610b4c578082015181840152602081019050610b31565b50505050905090810190601f168015610b795780820380516001836020036101000a031916815260200191505b509250505060405180910390f35b610bc960048036036020811015610b9d57600080fd5b81019080803573ffffffffffffffffffffffffffffffffffffffff1690602001909291905050506119cb565b604051808215151515815260200191505060405180910390f35b610c0f60048036036020811015610bf957600080fd5b81019080803590602001909291905050506119eb565b6040518080602001828103825283818151815260200191508051906020019080838360005b83811015610c4f578082015181840152602081019050610c34565b50505050905090810190601f168015610c7c5780820380516001836020036101000a031916815260200191505b509250505060405180910390f35b610c92611aa4565b6040518080602001828103825283818151815260200191508051906020019080838360005b83811015610cd2578082015181840152602081019050610cb7565b50505050905090810190601f168015610cff5780820380516001836020036101000a031916815260200191505b509250505060405180910390f35b610d3960048036036020811015610d2357600080fd5b8101908080359060200190929190505050611b46565b005b610d43611b87565b604051808260ff1660ff16815260200191505060405180910390f35b610d67611b9e565b6040518080602001828103825283818151815260200191508051906020019080838360005b83811015610da7578082015181840152602081019050610d8c565b50505050905090810190601f168015610dd45780820380516001836020036101000a031916815260200191505b509250505060405180910390f35b61106060048036036080811015610df857600080fd5b8101908080359060200190640100000000811115610e1557600080fd5b820183602082011115610e2757600080fd5b80359060200191846001830284011164010000000083111715610e4957600080fd5b91908080601f016020809104026020016040519081016040528093929190818152602001838380828437600081840152601f19601f82011690508083019250505050505050919291929080359060200190640100000000811115610eac57600080fd5b820183602082011115610ebe57600080fd5b80359060200191846001830284011164010000000083111715610ee057600080fd5b91908080601f016020809104026020016040519081016040528093929190818152602001838380828437600081840152601f19601f82011690508083019250505050505050919291929080359060200190640100000000811115610f4357600080fd5b820183602082011115610f5557600080fd5b80359060200191846001830284011164010000000083111715610f7757600080fd5b91908080601f016020809104026020016040519081016040528093929190818152602001838380828437600081840152601f19601f82011690508083019250505050505050919291929080359060200190640100000000811115610fda57600080fd5b820183602082011115610fec57600080fd5b8035906020019184600183028401116401000000008311171561100e57600080fd5b91908080601f016020809104026020016040519081016040528093929190818152602001838380828437600081840152601f19601f820116905080830192505050505050509192919290505050611c40565b005b61108e6004803603602081101561107857600080fd5b8101908080359060200190929190505050611ca2565b005b6060600360003373ffffffffffffffffffffffffffffffffffffffff1673ffffffffffffffffffffffffffffffffffffffff1681526020019081526020016000208054600181600116156101000203166002900480601f0160208091040260200160405190810160405280929190818152602001828054600181600116156101000203166002900480156111655780601f1061113a57610100808354040283529160200191611165565b820191906000526020600020905b81548152906001019060200180831161114857829003601f168201915b5050505050905090565b606060088054600181600116156101000203166002900480601f0160208091040260200160405190810160405280929190818152602001828054600181600116156101000203166002900480156112075780601f106111dc57610100808354040283529160200191611207565b820191906000526020600020905b8154815290600101906020018083116111ea57829003601f168201915b5050505050905090565b8360069080519060200190611227929190611da8565b506040518060600160405280848152602001838152602001828152506004906003611253929190611e28565b5050505050565b600160003373ffffffffffffffffffffffffffffffffffffffff1673ffffffffffffffffffffffffffffffffffffffff16815260200190815260200160002060009054906101000a900460ff16156112b157600080fd5b60018060003373ffffffffffffffffffffffffffffffffffffffff1673ffffffffffffffffffffffffffffffffffffffff16815260200190815260200160002060006101000a81548160ff02191690831515021790555080600360003373ffffffffffffffffffffffffffffffffffffffff1673ffffffffffffffffffffffffffffffffffffffff168152602001908152602001600020908051906020019061135b929190611da8565b506001600c60018282829054906101000a900460ff160192506101000a81548160ff021916908360ff16021790555050565b600080600083815260200190815260200160002060009054906101000a900460ff169050919050565b600581815481106113c357fe5b906000526020600020016000915090505481565b6000600260003373ffffffffffffffffffffffffffffffffffffffff1673ffffffffffffffffffffffffffffffffffffffff16815260200190815260200160002060009054906101000a900460ff16156114345760019050611439565b600090505b90565b60026020528060005260406000206000915054906101000a900460ff1681565b80600b9080519060200190611472929190611da8565b5050565b6000600c60009054906101000a900460ff16905090565b606060078054600181600116156101000203166002900480601f0160208091040260200160405190810160405280929190818152602001828054600181600116156101000203166002900480156115255780601f106114fa57610100808354040283529160200191611525565b820191906000526020600020905b81548152906001019060200180831161150857829003601f168201915b5050505050905090565b60606004828154811061153e57fe5b906000526020600020018054600181600116156101000203166002900480601f0160208091040260200160405190810160405280929190818152602001828054600181600116156101000203166002900480156115dc5780601f106115b1576101008083540402835291602001916115dc565b820191906000526020600020905b8154815290600101906020018083116115bf57829003601f168201915b50505050509050919050565b6060600b8054600181600116156101000203166002900480601f0160208091040260200160405190810160405280929190818152602001828054600181600116156101000203166002900480156116805780601f1061165557610100808354040283529160200191611680565b820191906000526020600020905b81548152906001019060200180831161166357829003601f168201915b5050505050905090565b60006020528060005260406000206000915054906101000a900460ff1681565b60036020528060005260406000206000915090508054600181600116156101000203166002900480601f0160208091040260200160405190810160405280929190818152602001828054600181600116156101000203166002900480156117525780601f1061172757610100808354040283529160200191611752565b820191906000526020600020905b81548152906001019060200180831161173557829003601f168201915b505050505081565b6000600160003373ffffffffffffffffffffffffffffffffffffffff1673ffffffffffffffffffffffffffffffffffffffff16815260200190815260200160002060009054906101000a900460ff16156117b757600190506117bc565b600090505b90565b600588908060018154018082558091505090600182039060005260206000200160009091929091909150555060058790806001815401808255809150509060018203906000526020600020016000909192909190915055506005869080600181540180825580915050906001820390600052602060002001600090919290919091505550600585908060018154018082558091505090600182039060005260206000200160009091929091909150555060058490806001815401808255809150509060018203906000526020600020016000909192909190915055506005839080600181540180825580915050906001820390600052602060002001600090919290919091505550600582908060018154018082558091505090600182039060005260206000200160009091929091909150555060058190806001815401808255809150509060018203906000526020600020016000909192909190915055505050505050505050565b606060068054600181600116156101000203166002900480601f0160208091040260200160405190810160405280929190818152602001828054600181600116156101000203166002900480156119c15780601f10611996576101008083540402835291602001916119c1565b820191906000526020600020905b8154815290600101906020018083116119a457829003601f168201915b5050505050905090565b60016020528060005260406000206000915054906101000a900460ff1681565b600481815481106119f857fe5b906000526020600020016000915090508054600181600116156101000203166002900480601f016020809104026020016040519081016040528092919081815260200182805460018160011615610100020316600290048015611a9c5780601f10611a7157610100808354040283529160200191611a9c565b820191906000526020600020905b815481529060010190602001808311611a7f57829003601f168201915b505050505081565b6060600a8054600181600116156101000203166002900480601f016020809104026020016040519081016040528092919081815260200182805460018160011615610100020316600290048015611b3c5780601f10611b1157610100808354040283529160200191611b3c565b820191906000526020600020905b815481529060010190602001808311611b1f57829003601f168201915b5050505050905090565b600160008083815260200190815260200160002060008282829054906101000a900460ff160192506101000a81548160ff021916908360ff16021790555050565b6000600c60019054906101000a900460ff16905090565b606060098054600181600116156101000203166002900480601f016020809104026020016040519081016040528092919081815260200182805460018160011615610100020316600290048015611c365780601f10611c0b57610100808354040283529160200191611c36565b820191906000526020600020905b815481529060010190602001808311611c1957829003601f168201915b5050505050905090565b8360079080519060200190611c56929190611da8565b508260089080519060200190611c6d929190611da8565b508160099080519060200190611c84929190611da8565b5080600a9080519060200190611c9b929190611da8565b5050505050565b60008090505b600580549050811015611da4578160058281548110611cc357fe5b90600052602060002001541415611d97576001600260003373ffffffffffffffffffffffffffffffffffffffff1673ffffffffffffffffffffffffffffffffffffffff16815260200190815260200160002060006101000a81548160ff0219169083151502179055507f307830000000000000000000000000000000000000000000000000000000000060058281548110611d5a57fe5b90600052602060002001819055506001600c60008282829054906101000a900460ff160192506101000a81548160ff021916908360ff1602179055505b8080600101915050611ca8565b5050565b828054600181600116156101000203166002900490600052602060002090601f016020900481019282601f10611de957805160ff1916838001178555611e17565b82800160010185558215611e17579182015b82811115611e16578251825591602001919060010190611dfb565b5b509050611e249190611e88565b5090565b828054828255906000526020600020908101928215611e77579160200282015b82811115611e76578251829080519060200190611e66929190611ead565b5091602001919060010190611e48565b5b509050611e849190611f2d565b5090565b611eaa91905b80821115611ea6576000816000905550600101611e8e565b5090565b90565b828054600181600116156101000203166002900490600052602060002090601f016020900481019282601f10611eee57805160ff1916838001178555611f1c565b82800160010185558215611f1c579182015b82811115611f1b578251825591602001919060010190611f00565b5b509050611f299190611e88565b5090565b611f5691905b80821115611f525760008181611f499190611f59565b50600101611f33565b5090565b90565b50805460018160011615610100020316600290046000825580601f10611f7f5750611f9e565b601f016020900490600052602060002090810190611f9d9190611e88565b5b5056fea265627a7a7231582029408768ebd1583e659930b8f175d32221a194c9c9d9bb6276048bcdf2540e3764736f6c63430005100032",
  "source": "pragma solidity ^0.5.0;\r\ncontract Voting {\r\n\r\n\r\n  mapping (bytes32 => uint8) public votesReceived;//the total count of someone\r\n\r\n  //someone have voted of not\r\n  mapping (address=>bool) public voters;\r\n  mapping (address=>bool) public register;\r\n  mapping (address=>string) public voteData;\r\n\r\n  string[] public candidateList;\r\n  bytes32[] public registerIdList;\r\n\r\n  string ProjectName;\r\n  string RegisterStartTime = \"2022-11-06 15:00\";\r\n  string RegisterEndTime = \"2022-11-07 10:00\";\r\n  string VoteStartTime =\"2022-11-07 10:00\";\r\n  string VoteEndTime = \"2022-11-07 10:00\";\r\n  string PrivateKey;\r\n\r\n  uint8 registerCount = 0;\r\n  uint8 voteCount = 0;\r\n\r\n  constructor() public {\r\n    //candidateList.push(\"zhang\");\r\n    //candidateList.push(\"bin\");\r\n    //candidateList.push(\"cheng\");\r\n    //registerIdList.push(123456);\r\n    //registerIdList.push(111111);\r\n    //registerIdList.push(121212);\r\n  }\r\n\r\n  function projectSetup(string memory title, string memory select1, string memory select2, string memory select3) public{\r\n      ProjectName = title;\r\n      candidateList=[select1, select2, select3];\r\n  }\r\n\r\n  function registerIdSetup(bytes32 register1, bytes32 register2, bytes32 register3, bytes32 register4, bytes32 register5, bytes32 register6, bytes32 register7, bytes32 register8) public{\r\n      registerIdList.push(register1);\r\n      registerIdList.push(register2);\r\n      registerIdList.push(register3);\r\n      registerIdList.push(register4);\r\n      registerIdList.push(register5);\r\n      registerIdList.push(register6);\r\n      registerIdList.push(register7);\r\n      registerIdList.push(register8);\r\n  }\r\n\r\n  function TimeSetSetup(string memory register_start_time,string memory register_end_time, string memory vote_start_time, string memory vote_end_time) public{\r\n    RegisterStartTime = register_start_time;\r\n    RegisterEndTime = register_end_time;\r\n    VoteStartTime = vote_start_time;\r\n    VoteEndTime = vote_end_time;\r\n  }\r\n\r\n  function getProjectName() public view returns (string memory){\r\n    return ProjectName;\r\n  }\r\n\r\n  function getRegisterStartTime() public view returns (string memory){\r\n    return RegisterStartTime;\r\n  }\r\n\r\n  function getRegisterEndTime() public view returns (string memory){\r\n    return RegisterEndTime;\r\n  }\r\n\r\n  function  getVoteStartTime() public view returns (string memory){\r\n    return VoteStartTime;\r\n  }\r\n\r\n  function getVoteEndTime() public view returns (string memory){\r\n    return VoteEndTime;\r\n  }\r\n\r\n  function getCandidateList(uint index) public view returns (string memory){\r\n    return candidateList[index];\r\n  }\r\n\r\n  function getRegisterCount() public view returns (uint8){\r\n      return registerCount;\r\n  }\r\n\r\n  function getVoteCount() public view returns (uint8){\r\n      return voteCount;\r\n  }\r\n\r\n  function getVoteData() public view returns (string memory){\r\n      return voteData[msg.sender];\r\n  }\r\n\r\n\r\n  //the total count of someone\r\n  function totalVotesFor(bytes32 candidate) view public returns (uint8) {\r\n    //require(validCandidate(candidate));//the candidate is true\r\n    return votesReceived[candidate];\r\n  }\r\n\r\n  //vote to somesome and write someone has been voted\r\n  function voteForCandidate(bytes32 candidate) public {\r\n\r\n    votesReceived[candidate] += 1;\r\n\r\n  }\r\n\r\n  function voteDataStore(string memory candidate) public {\r\n    //require(!register[msg.sender]);\r\n    require(!voters[msg.sender]);\r\n    //require(validCandidate(candidate));//the candidate is true\r\n\r\n    //\r\n    voters[msg.sender] = true;\r\n    voteData[msg.sender] = candidate;\r\n    voteCount += 1;\r\n  }\r\n\r\n  //someone register.\r\n  function someoneRegister(bytes32 registerId) public{\r\n      for(uint i = 0; i < registerIdList.length; i++){\r\n          if(registerIdList[i] == registerId){\r\n            register[msg.sender] = true;\r\n            registerIdList[i] = \"0x0\";\r\n            registerCount += 1;\r\n          }\r\n      }\r\n  }\r\n\r\n  //if someone has registered or not.\r\n  function VaildID() public view  returns (bool) {\r\n      if(register[msg.sender]) {\r\n          return true;\r\n      }\r\n      return false;\r\n  }\r\n\r\n  //if someone has voted or not.\r\n  function isVoted() public view returns (bool) {\r\n      if(voters[msg.sender]) {\r\n          return true;\r\n      }\r\n      return false;\r\n  }\r\n\r\n  //store privatekey\r\n  function doGenerate(string memory privatekey) public{\r\n      PrivateKey = privatekey;\r\n  }\r\n\r\n  //get privatekey\r\n  function getPrivateKey() public view returns (string memory){\r\n      return PrivateKey;\r\n  }\r\n\r\n}\r\n",
  "sourcePath": "D:\\Blockchain-Voting\\pet-Voting\\contracts\\Voting.sol",
  "compiler": {
    "name": "solc",
    "version": "0.5.16+commit.9c3226ce.Emscripten.clang"
  },
  "schemaVersion": "3.4.10",
  "updatedAt": "2022-11-07T12:22:36.900Z",
  "devdoc": {
    "methods": {}
  },
  "userdoc": {
    "methods": {}
  }
}